{
  "contractName": "Space3",
  "abi": [
    {
      "inputs": [],
      "stateMutability": "nonpayable",
      "type": "constructor"
    },
    {
      "anonymous": false,
      "inputs": [
        {
          "indexed": false,
          "internalType": "address",
          "name": "previousAdmin",
          "type": "address"
        },
        {
          "indexed": false,
          "internalType": "address",
          "name": "newAdmin",
          "type": "address"
        }
      ],
      "name": "AdminChanged",
      "type": "event"
    },
    {
      "anonymous": false,
      "inputs": [
        {
          "indexed": true,
          "internalType": "address",
          "name": "account",
          "type": "address"
        },
        {
          "indexed": true,
          "internalType": "address",
          "name": "operator",
          "type": "address"
        },
        {
          "indexed": false,
          "internalType": "bool",
          "name": "approved",
          "type": "bool"
        }
      ],
      "name": "ApprovalForAll",
      "type": "event"
    },
    {
      "anonymous": false,
      "inputs": [
        {
          "indexed": true,
          "internalType": "address",
          "name": "beacon",
          "type": "address"
        }
      ],
      "name": "BeaconUpgraded",
      "type": "event"
    },
    {
      "anonymous": false,
      "inputs": [
        {
          "indexed": false,
          "internalType": "uint8",
          "name": "version",
          "type": "uint8"
        }
      ],
      "name": "Initialized",
      "type": "event"
    },
    {
      "anonymous": false,
      "inputs": [
        {
          "indexed": true,
          "internalType": "bytes32",
          "name": "role",
          "type": "bytes32"
        },
        {
          "indexed": true,
          "internalType": "bytes32",
          "name": "previousAdminRole",
          "type": "bytes32"
        },
        {
          "indexed": true,
          "internalType": "bytes32",
          "name": "newAdminRole",
          "type": "bytes32"
        }
      ],
      "name": "RoleAdminChanged",
      "type": "event"
    },
    {
      "anonymous": false,
      "inputs": [
        {
          "indexed": true,
          "internalType": "bytes32",
          "name": "role",
          "type": "bytes32"
        },
        {
          "indexed": true,
          "internalType": "address",
          "name": "account",
          "type": "address"
        },
        {
          "indexed": true,
          "internalType": "address",
          "name": "sender",
          "type": "address"
        }
      ],
      "name": "RoleGranted",
      "type": "event"
    },
    {
      "anonymous": false,
      "inputs": [
        {
          "indexed": true,
          "internalType": "bytes32",
          "name": "role",
          "type": "bytes32"
        },
        {
          "indexed": true,
          "internalType": "address",
          "name": "account",
          "type": "address"
        },
        {
          "indexed": true,
          "internalType": "address",
          "name": "sender",
          "type": "address"
        }
      ],
      "name": "RoleRevoked",
      "type": "event"
    },
    {
      "anonymous": false,
      "inputs": [
        {
          "indexed": true,
          "internalType": "address",
          "name": "operator",
          "type": "address"
        },
        {
          "indexed": true,
          "internalType": "address",
          "name": "from",
          "type": "address"
        },
        {
          "indexed": true,
          "internalType": "address",
          "name": "to",
          "type": "address"
        },
        {
          "indexed": false,
          "internalType": "uint256[]",
          "name": "ids",
          "type": "uint256[]"
        },
        {
          "indexed": false,
          "internalType": "uint256[]",
          "name": "values",
          "type": "uint256[]"
        }
      ],
      "name": "TransferBatch",
      "type": "event"
    },
    {
      "anonymous": false,
      "inputs": [
        {
          "indexed": true,
          "internalType": "address",
          "name": "operator",
          "type": "address"
        },
        {
          "indexed": true,
          "internalType": "address",
          "name": "from",
          "type": "address"
        },
        {
          "indexed": true,
          "internalType": "address",
          "name": "to",
          "type": "address"
        },
        {
          "indexed": false,
          "internalType": "uint256",
          "name": "id",
          "type": "uint256"
        },
        {
          "indexed": false,
          "internalType": "uint256",
          "name": "value",
          "type": "uint256"
        }
      ],
      "name": "TransferSingle",
      "type": "event"
    },
    {
      "anonymous": false,
      "inputs": [
        {
          "indexed": false,
          "internalType": "string",
          "name": "value",
          "type": "string"
        },
        {
          "indexed": true,
          "internalType": "uint256",
          "name": "id",
          "type": "uint256"
        }
      ],
      "name": "URI",
      "type": "event"
    },
    {
      "anonymous": false,
      "inputs": [
        {
          "indexed": true,
          "internalType": "address",
          "name": "implementation",
          "type": "address"
        }
      ],
      "name": "Upgraded",
      "type": "event"
    },
    {
      "inputs": [],
      "name": "DEFAULT_ADMIN_ROLE",
      "outputs": [
        {
          "internalType": "bytes32",
          "name": "",
          "type": "bytes32"
        }
      ],
      "stateMutability": "view",
      "type": "function"
    },
    {
      "inputs": [],
      "name": "MINTER_ROLE",
      "outputs": [
        {
          "internalType": "bytes32",
          "name": "",
          "type": "bytes32"
        }
      ],
      "stateMutability": "view",
      "type": "function"
    },
    {
      "inputs": [],
      "name": "UPGRADER_ROLE",
      "outputs": [
        {
          "internalType": "bytes32",
          "name": "",
          "type": "bytes32"
        }
      ],
      "stateMutability": "view",
      "type": "function"
    },
    {
      "inputs": [
        {
          "internalType": "address",
          "name": "account",
          "type": "address"
        },
        {
          "internalType": "uint256",
          "name": "id",
          "type": "uint256"
        }
      ],
      "name": "balanceOf",
      "outputs": [
        {
          "internalType": "uint256",
          "name": "",
          "type": "uint256"
        }
      ],
      "stateMutability": "view",
      "type": "function"
    },
    {
      "inputs": [
        {
          "internalType": "address[]",
          "name": "accounts",
          "type": "address[]"
        },
        {
          "internalType": "uint256[]",
          "name": "ids",
          "type": "uint256[]"
        }
      ],
      "name": "balanceOfBatch",
      "outputs": [
        {
          "internalType": "uint256[]",
          "name": "",
          "type": "uint256[]"
        }
      ],
      "stateMutability": "view",
      "type": "function"
    },
    {
      "inputs": [
        {
          "internalType": "uint256",
          "name": "id",
          "type": "uint256"
        }
      ],
      "name": "exists",
      "outputs": [
        {
          "internalType": "bool",
          "name": "",
          "type": "bool"
        }
      ],
      "stateMutability": "view",
      "type": "function"
    },
    {
      "inputs": [
        {
          "internalType": "bytes32",
          "name": "role",
          "type": "bytes32"
        }
      ],
      "name": "getRoleAdmin",
      "outputs": [
        {
          "internalType": "bytes32",
          "name": "",
          "type": "bytes32"
        }
      ],
      "stateMutability": "view",
      "type": "function"
    },
    {
      "inputs": [
        {
          "internalType": "bytes32",
          "name": "role",
          "type": "bytes32"
        },
        {
          "internalType": "address",
          "name": "account",
          "type": "address"
        }
      ],
      "name": "grantRole",
      "outputs": [],
      "stateMutability": "nonpayable",
      "type": "function"
    },
    {
      "inputs": [
        {
          "internalType": "bytes32",
          "name": "role",
          "type": "bytes32"
        },
        {
          "internalType": "address",
          "name": "account",
          "type": "address"
        }
      ],
      "name": "hasRole",
      "outputs": [
        {
          "internalType": "bool",
          "name": "",
          "type": "bool"
        }
      ],
      "stateMutability": "view",
      "type": "function"
    },
    {
      "inputs": [
        {
          "internalType": "address",
          "name": "account",
          "type": "address"
        },
        {
          "internalType": "address",
          "name": "operator",
          "type": "address"
        }
      ],
      "name": "isApprovedForAll",
      "outputs": [
        {
          "internalType": "bool",
          "name": "",
          "type": "bool"
        }
      ],
      "stateMutability": "view",
      "type": "function"
    },
    {
      "inputs": [],
      "name": "proxiableUUID",
      "outputs": [
        {
          "internalType": "bytes32",
          "name": "",
          "type": "bytes32"
        }
      ],
      "stateMutability": "view",
      "type": "function"
    },
    {
      "inputs": [
        {
          "internalType": "bytes32",
          "name": "role",
          "type": "bytes32"
        },
        {
          "internalType": "address",
          "name": "account",
          "type": "address"
        }
      ],
      "name": "renounceRole",
      "outputs": [],
      "stateMutability": "nonpayable",
      "type": "function"
    },
    {
      "inputs": [
        {
          "internalType": "bytes32",
          "name": "role",
          "type": "bytes32"
        },
        {
          "internalType": "address",
          "name": "account",
          "type": "address"
        }
      ],
      "name": "revokeRole",
      "outputs": [],
      "stateMutability": "nonpayable",
      "type": "function"
    },
    {
      "inputs": [
        {
          "internalType": "address",
          "name": "from",
          "type": "address"
        },
        {
          "internalType": "address",
          "name": "to",
          "type": "address"
        },
        {
          "internalType": "uint256[]",
          "name": "ids",
          "type": "uint256[]"
        },
        {
          "internalType": "uint256[]",
          "name": "amounts",
          "type": "uint256[]"
        },
        {
          "internalType": "bytes",
          "name": "data",
          "type": "bytes"
        }
      ],
      "name": "safeBatchTransferFrom",
      "outputs": [],
      "stateMutability": "nonpayable",
      "type": "function"
    },
    {
      "inputs": [
        {
          "internalType": "address",
          "name": "from",
          "type": "address"
        },
        {
          "internalType": "address",
          "name": "to",
          "type": "address"
        },
        {
          "internalType": "uint256",
          "name": "id",
          "type": "uint256"
        },
        {
          "internalType": "uint256",
          "name": "amount",
          "type": "uint256"
        },
        {
          "internalType": "bytes",
          "name": "data",
          "type": "bytes"
        }
      ],
      "name": "safeTransferFrom",
      "outputs": [],
      "stateMutability": "nonpayable",
      "type": "function"
    },
    {
      "inputs": [
        {
          "internalType": "address",
          "name": "operator",
          "type": "address"
        },
        {
          "internalType": "bool",
          "name": "approved",
          "type": "bool"
        }
      ],
      "name": "setApprovalForAll",
      "outputs": [],
      "stateMutability": "nonpayable",
      "type": "function"
    },
    {
      "inputs": [
        {
          "internalType": "uint256",
          "name": "id",
          "type": "uint256"
        }
      ],
      "name": "totalSupply",
      "outputs": [
        {
          "internalType": "uint256",
          "name": "",
          "type": "uint256"
        }
      ],
      "stateMutability": "view",
      "type": "function"
    },
    {
      "inputs": [
        {
          "internalType": "address",
          "name": "newImplementation",
          "type": "address"
        }
      ],
      "name": "upgradeTo",
      "outputs": [],
      "stateMutability": "nonpayable",
      "type": "function"
    },
    {
      "inputs": [
        {
          "internalType": "address",
          "name": "newImplementation",
          "type": "address"
        },
        {
          "internalType": "bytes",
          "name": "data",
          "type": "bytes"
        }
      ],
      "name": "upgradeToAndCall",
      "outputs": [],
      "stateMutability": "payable",
      "type": "function"
    },
    {
      "inputs": [],
      "name": "initialize",
      "outputs": [],
      "stateMutability": "nonpayable",
      "type": "function"
    },
    {
      "inputs": [
        {
          "internalType": "address",
          "name": "account",
          "type": "address"
        },
        {
          "internalType": "uint256",
          "name": "amount",
          "type": "uint256"
        },
        {
          "internalType": "string",
          "name": "url",
          "type": "string"
        },
        {
          "internalType": "bytes",
          "name": "data",
          "type": "bytes"
        }
      ],
      "name": "mint",
      "outputs": [],
      "stateMutability": "nonpayable",
      "type": "function"
    },
    {
      "inputs": [],
      "name": "getCurrentTokenId",
      "outputs": [
        {
          "internalType": "uint256",
          "name": "",
          "type": "uint256"
        }
      ],
      "stateMutability": "view",
      "type": "function"
    },
    {
      "inputs": [
        {
          "internalType": "uint256",
          "name": "tokenId",
          "type": "uint256"
        }
      ],
      "name": "uri",
      "outputs": [
        {
          "internalType": "string",
          "name": "",
          "type": "string"
        }
      ],
      "stateMutability": "view",
      "type": "function"
    },
    {
      "inputs": [
        {
          "internalType": "bytes4",
          "name": "interfaceId",
          "type": "bytes4"
        }
      ],
      "name": "supportsInterface",
      "outputs": [
        {
          "internalType": "bool",
          "name": "",
          "type": "bool"
        }
      ],
      "stateMutability": "view",
      "type": "function"
    }
  ],
  "bytecode": "0x60a06040523073ffffffffffffffffffffffffffffffffffffffff1660809073ffffffffffffffffffffffffffffffffffffffff1681525034801561004357600080fd5b50608051614e4c61007b600039600081816108ae0152818161093c01528181610b4f01528181610bdd0152610ca10152614e4c6000f3fe60806040526004361061014a5760003560e01c806356189236116100b6578063d2b04fd61161006f578063d2b04fd6146104b8578063d5391393146104e1578063d547741f1461050c578063e985e9c514610535578063f242432a14610572578063f72c0d8b1461059b5761014a565b806356189236146103a85780638129fc1c146103d357806391d14854146103ea578063a217fddf14610427578063a22cb46514610452578063bd85b0391461047b5761014a565b806336568abe1161010857806336568abe146102955780633659cfe6146102be5780634e1273f4146102e75780634f1ef286146103245780634f558e791461034057806352d1902d1461037d5761014a565b8062fdd58e1461014f57806301ffc9a71461018c5780630e89341c146101c9578063248a9ca3146102065780632eb2c2d6146102435780632f2ff15d1461026c575b600080fd5b34801561015b57600080fd5b5061017660048036038101906101719190612fda565b6105c6565b6040516101839190613029565b60405180910390f35b34801561019857600080fd5b506101b360048036038101906101ae919061309c565b61068f565b6040516101c091906130e4565b60405180910390f35b3480156101d557600080fd5b506101f060048036038101906101eb91906130ff565b6106a1565b6040516101fd91906131c5565b60405180910390f35b34801561021257600080fd5b5061022d6004803603810190610228919061321d565b610747565b60405161023a9190613259565b60405180910390f35b34801561024f57600080fd5b5061026a60048036038101906102659190613471565b610767565b005b34801561027857600080fd5b50610293600480360381019061028e9190613540565b610808565b005b3480156102a157600080fd5b506102bc60048036038101906102b79190613540565b610829565b005b3480156102ca57600080fd5b506102e560048036038101906102e09190613580565b6108ac565b005b3480156102f357600080fd5b5061030e60048036038101906103099190613670565b610a34565b60405161031b91906137a6565b60405180910390f35b61033e600480360381019061033991906137c8565b610b4d565b005b34801561034c57600080fd5b50610367600480360381019061036291906130ff565b610c89565b60405161037491906130e4565b60405180910390f35b34801561038957600080fd5b50610392610c9d565b60405161039f9190613259565b60405180910390f35b3480156103b457600080fd5b506103bd610d56565b6040516103ca9190613029565b60405180910390f35b3480156103df57600080fd5b506103e8610d68565b005b3480156103f657600080fd5b50610411600480360381019061040c9190613540565b610f2f565b60405161041e91906130e4565b60405180910390f35b34801561043357600080fd5b5061043c610f9a565b6040516104499190613259565b60405180910390f35b34801561045e57600080fd5b5061047960048036038101906104749190613850565b610fa1565b005b34801561048757600080fd5b506104a2600480360381019061049d91906130ff565b610fb7565b6040516104af9190613029565b60405180910390f35b3480156104c457600080fd5b506104df60048036038101906104da9190613931565b610fd4565b005b3480156104ed57600080fd5b506104f6611036565b6040516105039190613259565b60405180910390f35b34801561051857600080fd5b50610533600480360381019061052e9190613540565b61105a565b005b34801561054157600080fd5b5061055c600480360381019061055791906139d0565b61107b565b60405161056991906130e4565b60405180910390f35b34801561057e57600080fd5b5061059960048036038101906105949190613a10565b61110f565b005b3480156105a757600080fd5b506105b06111b0565b6040516105bd9190613259565b60405180910390f35b60008073ffffffffffffffffffffffffffffffffffffffff168373ffffffffffffffffffffffffffffffffffffffff1603610636576040517f08c379a000000000000000000000000000000000000000000000000000000000815260040161062d90613b19565b60405180910390fd5b6065600083815260200190815260200160002060008473ffffffffffffffffffffffffffffffffffffffff1673ffffffffffffffffffffffffffffffffffffffff16815260200190815260200160002054905092915050565b600061069a826111d4565b9050919050565b6060610160600083815260200190815260200160002080546106c290613b68565b80601f01602080910402602001604051908101604052809291908181526020018280546106ee90613b68565b801561073b5780601f106107105761010080835404028352916020019161073b565b820191906000526020600020905b81548152906001019060200180831161071e57829003601f168201915b50505050509050919050565b600060976000838152602001908152602001600020600101549050919050565b61076f61124e565b73ffffffffffffffffffffffffffffffffffffffff168573ffffffffffffffffffffffffffffffffffffffff1614806107b557506107b4856107af61124e565b61107b565b5b6107f4576040517f08c379a00000000000000000000000000000000000000000000000000000000081526004016107eb90613c0b565b60405180910390fd5b6108018585858585611256565b5050505050565b61081182610747565b61081a8161157a565b610824838361158e565b505050565b61083161124e565b73ffffffffffffffffffffffffffffffffffffffff168173ffffffffffffffffffffffffffffffffffffffff161461089e576040517f08c379a000000000000000000000000000000000000000000000000000000000815260040161089590613c9d565b60405180910390fd5b6108a8828261166f565b5050565b7f000000000000000000000000000000000000000000000000000000000000000073ffffffffffffffffffffffffffffffffffffffff163073ffffffffffffffffffffffffffffffffffffffff160361093a576040517f08c379a000000000000000000000000000000000000000000000000000000000815260040161093190613d2f565b60405180910390fd5b7f000000000000000000000000000000000000000000000000000000000000000073ffffffffffffffffffffffffffffffffffffffff16610979611751565b73ffffffffffffffffffffffffffffffffffffffff16146109cf576040517f08c379a00000000000000000000000000000000000000000000000000000000081526004016109c690613dc1565b60405180910390fd5b6109d8816117a8565b610a3181600067ffffffffffffffff8111156109f7576109f6613279565b5b6040519080825280601f01601f191660200182016040528015610a295781602001600182028036833780820191505090505b5060006117d6565b50565b60608151835114610a7a576040517f08c379a0000000000000000000000000000000000000000000000000000000008152600401610a7190613e53565b60405180910390fd5b6000835167ffffffffffffffff811115610a9757610a96613279565b5b604051908082528060200260200182016040528015610ac55781602001602082028036833780820191505090505b50905060005b8451811015610b4257610b12858281518110610aea57610ae9613e73565b5b6020026020010151858381518110610b0557610b04613e73565b5b60200260200101516105c6565b828281518110610b2557610b24613e73565b5b60200260200101818152505080610b3b90613ed1565b9050610acb565b508091505092915050565b7f000000000000000000000000000000000000000000000000000000000000000073ffffffffffffffffffffffffffffffffffffffff163073ffffffffffffffffffffffffffffffffffffffff1603610bdb576040517f08c379a0000000000000000000000000000000000000000000000000000000008152600401610bd290613d2f565b60405180910390fd5b7f000000000000000000000000000000000000000000000000000000000000000073ffffffffffffffffffffffffffffffffffffffff16610c1a611751565b73ffffffffffffffffffffffffffffffffffffffff1614610c70576040517f08c379a0000000000000000000000000000000000000000000000000000000008152600401610c6790613dc1565b60405180910390fd5b610c79826117a8565b610c85828260016117d6565b5050565b600080610c9583610fb7565b119050919050565b60007f000000000000000000000000000000000000000000000000000000000000000073ffffffffffffffffffffffffffffffffffffffff163073ffffffffffffffffffffffffffffffffffffffff1614610d2d576040517f08c379a0000000000000000000000000000000000000000000000000000000008152600401610d2490613f8b565b60405180910390fd5b7f360894a13ba1a3210667c828492db98dca3e2076cc3735a920a3ca505d382bbc60001b905090565b6000610d6361015f611944565b905090565b60008060019054906101000a900460ff16159050808015610d995750600160008054906101000a900460ff1660ff16105b80610dc65750610da830611952565b158015610dc55750600160008054906101000a900460ff1660ff16145b5b610e05576040517f08c379a0000000000000000000000000000000000000000000000000000000008152600401610dfc9061401d565b60405180910390fd5b60016000806101000a81548160ff021916908360ff1602179055508015610e42576001600060016101000a81548160ff0219169083151502179055505b610e5a60405180602001604052806000815250611975565b610e626119d0565b610e6a611a21565b610e72611a72565b610e7f6000801b3361158e565b610ea97f9f2df0fed2c77648de5860a4cc508cd0818c85b8b8a1ab4ceeef8d981c8956a63361158e565b610ed37f189ab7a9244df0848122154315af71fe140f3db0fe014031783b0946b8c9d2e33361158e565b8015610f2c5760008060016101000a81548160ff0219169083151502179055507f7f26b83ff96e1f2b6a682f133852f6798a09c465da95921460cefb38474024986001604051610f23919061408f565b60405180910390a15b50565b60006097600084815260200190815260200160002060000160008373ffffffffffffffffffffffffffffffffffffffff1673ffffffffffffffffffffffffffffffffffffffff16815260200190815260200160002060009054906101000a900460ff16905092915050565b6000801b81565b610fb3610fac61124e565b8383611ac3565b5050565b600060c96000838152602001908152602001600020549050919050565b7f9f2df0fed2c77648de5860a4cc508cd0818c85b8b8a1ab4ceeef8d981c8956a6610ffe8161157a565b600061100b61015f611944565b905061101861015f611c2f565b6110228185611c45565b61102e86828786611cd5565b505050505050565b7f9f2df0fed2c77648de5860a4cc508cd0818c85b8b8a1ab4ceeef8d981c8956a681565b61106382610747565b61106c8161157a565b611076838361166f565b505050565b6000606660008473ffffffffffffffffffffffffffffffffffffffff1673ffffffffffffffffffffffffffffffffffffffff16815260200190815260200160002060008373ffffffffffffffffffffffffffffffffffffffff1673ffffffffffffffffffffffffffffffffffffffff16815260200190815260200160002060009054906101000a900460ff16905092915050565b61111761124e565b73ffffffffffffffffffffffffffffffffffffffff168573ffffffffffffffffffffffffffffffffffffffff16148061115d575061115c8561115761124e565b61107b565b5b61119c576040517f08c379a000000000000000000000000000000000000000000000000000000000815260040161119390613c0b565b60405180910390fd5b6111a98585858585611e86565b5050505050565b7f189ab7a9244df0848122154315af71fe140f3db0fe014031783b0946b8c9d2e381565b60007f7965db0b000000000000000000000000000000000000000000000000000000007bffffffffffffffffffffffffffffffffffffffffffffffffffffffff1916827bffffffffffffffffffffffffffffffffffffffffffffffffffffffff19161480611247575061124682612124565b5b9050919050565b600033905090565b815183511461129a576040517f08c379a00000000000000000000000000000000000000000000000000000000081526004016112919061411c565b60405180910390fd5b600073ffffffffffffffffffffffffffffffffffffffff168473ffffffffffffffffffffffffffffffffffffffff1603611309576040517f08c379a0000000000000000000000000000000000000000000000000000000008152600401611300906141ae565b60405180910390fd5b600061131361124e565b9050611323818787878787612206565b60005b84518110156114d757600085828151811061134457611343613e73565b5b60200260200101519050600085838151811061136357611362613e73565b5b6020026020010151905060006065600084815260200190815260200160002060008b73ffffffffffffffffffffffffffffffffffffffff1673ffffffffffffffffffffffffffffffffffffffff16815260200190815260200160002054905081811015611405576040517f08c379a00000000000000000000000000000000000000000000000000000000081526004016113fc90614240565b60405180910390fd5b8181036065600085815260200190815260200160002060008c73ffffffffffffffffffffffffffffffffffffffff1673ffffffffffffffffffffffffffffffffffffffff16815260200190815260200160002081905550816065600085815260200190815260200160002060008b73ffffffffffffffffffffffffffffffffffffffff1673ffffffffffffffffffffffffffffffffffffffff16815260200190815260200160002060008282546114bc9190614260565b92505081905550505050806114d090613ed1565b9050611326565b508473ffffffffffffffffffffffffffffffffffffffff168673ffffffffffffffffffffffffffffffffffffffff168273ffffffffffffffffffffffffffffffffffffffff167f4a39dc06d4c0dbc64b70af90fd698a233a518aa5d07e595d983b8c0526c8f7fb878760405161154e9291906142b6565b60405180910390a461156481878787878761221c565b611572818787878787612224565b505050505050565b61158b8161158661124e565b6123fb565b50565b6115988282610f2f565b61166b5760016097600084815260200190815260200160002060000160008373ffffffffffffffffffffffffffffffffffffffff1673ffffffffffffffffffffffffffffffffffffffff16815260200190815260200160002060006101000a81548160ff02191690831515021790555061161061124e565b73ffffffffffffffffffffffffffffffffffffffff168173ffffffffffffffffffffffffffffffffffffffff16837f2f8788117e7eff1d82e926ec794901d17c78024a50270940304540a733656f0d60405160405180910390a45b5050565b6116798282610f2f565b1561174d5760006097600084815260200190815260200160002060000160008373ffffffffffffffffffffffffffffffffffffffff1673ffffffffffffffffffffffffffffffffffffffff16815260200190815260200160002060006101000a81548160ff0219169083151502179055506116f261124e565b73ffffffffffffffffffffffffffffffffffffffff168173ffffffffffffffffffffffffffffffffffffffff16837ff6391f5c32d9c69d2a47ea670b442974b53935d1edc7fd64eb21e047a839171b60405160405180910390a45b5050565b600061177f7f360894a13ba1a3210667c828492db98dca3e2076cc3735a920a3ca505d382bbc60001b612480565b60000160009054906101000a900473ffffffffffffffffffffffffffffffffffffffff16905090565b7f189ab7a9244df0848122154315af71fe140f3db0fe014031783b0946b8c9d2e36117d28161157a565b5050565b6118027f4910fdfa16fed3260ed0e7147f7cc6da11a60208b5b9406d12a635614ffd914360001b61248a565b60000160009054906101000a900460ff16156118265761182183612494565b61193f565b8273ffffffffffffffffffffffffffffffffffffffff166352d1902d6040518163ffffffff1660e01b8152600401602060405180830381865afa92505050801561188e57506040513d601f19601f8201168201806040525081019061188b9190614302565b60015b6118cd576040517f08c379a00000000000000000000000000000000000000000000000000000000081526004016118c4906143a1565b60405180910390fd5b7f360894a13ba1a3210667c828492db98dca3e2076cc3735a920a3ca505d382bbc60001b8114611932576040517f08c379a000000000000000000000000000000000000000000000000000000000815260040161192990614433565b60405180910390fd5b5061193e83838361254d565b5b505050565b600081600001549050919050565b6000808273ffffffffffffffffffffffffffffffffffffffff163b119050919050565b600060019054906101000a900460ff166119c4576040517f08c379a00000000000000000000000000000000000000000000000000000000081526004016119bb906144c5565b60405180910390fd5b6119cd81612579565b50565b600060019054906101000a900460ff16611a1f576040517f08c379a0000000000000000000000000000000000000000000000000000000008152600401611a16906144c5565b60405180910390fd5b565b600060019054906101000a900460ff16611a70576040517f08c379a0000000000000000000000000000000000000000000000000000000008152600401611a67906144c5565b60405180910390fd5b565b600060019054906101000a900460ff16611ac1576040517f08c379a0000000000000000000000000000000000000000000000000000000008152600401611ab8906144c5565b60405180910390fd5b565b8173ffffffffffffffffffffffffffffffffffffffff168373ffffffffffffffffffffffffffffffffffffffff1603611b31576040517f08c379a0000000000000000000000000000000000000000000000000000000008152600401611b2890614557565b60405180910390fd5b80606660008573ffffffffffffffffffffffffffffffffffffffff1673ffffffffffffffffffffffffffffffffffffffff16815260200190815260200160002060008473ffffffffffffffffffffffffffffffffffffffff1673ffffffffffffffffffffffffffffffffffffffff16815260200190815260200160002060006101000a81548160ff0219169083151502179055508173ffffffffffffffffffffffffffffffffffffffff168373ffffffffffffffffffffffffffffffffffffffff167f17307eab39ab6107e8899845ad3d59bd9653f200f220920489ca2b5937696c3183604051611c2291906130e4565b60405180910390a3505050565b6001816000016000828254019250508190555050565b600061016060008481526020019081526020016000208054611c6690613b68565b905014611ca8576040517f08c379a0000000000000000000000000000000000000000000000000000000008152600401611c9f906145c3565b60405180910390fd5b8061016060008481526020019081526020016000209080519060200190611cd0929190612e8f565b505050565b600073ffffffffffffffffffffffffffffffffffffffff168473ffffffffffffffffffffffffffffffffffffffff1603611d44576040517f08c379a0000000000000000000000000000000000000000000000000000000008152600401611d3b90614655565b60405180910390fd5b6000611d4e61124e565b90506000611d5b856125d4565b90506000611d68856125d4565b9050611d7983600089858589612206565b846065600088815260200190815260200160002060008973ffffffffffffffffffffffffffffffffffffffff1673ffffffffffffffffffffffffffffffffffffffff1681526020019081526020016000206000828254611dd99190614260565b925050819055508673ffffffffffffffffffffffffffffffffffffffff16600073ffffffffffffffffffffffffffffffffffffffff168473ffffffffffffffffffffffffffffffffffffffff167fc3d58168c5ae7397731d063d5bbf3d657854427343f4c083240f7aacaa2d0f628989604051611e57929190614675565b60405180910390a4611e6e8360008985858961221c565b611e7d8360008989898961264e565b50505050505050565b600073ffffffffffffffffffffffffffffffffffffffff168473ffffffffffffffffffffffffffffffffffffffff1603611ef5576040517f08c379a0000000000000000000000000000000000000000000000000000000008152600401611eec906141ae565b60405180910390fd5b6000611eff61124e565b90506000611f0c856125d4565b90506000611f19856125d4565b9050611f29838989858589612206565b60006065600088815260200190815260200160002060008a73ffffffffffffffffffffffffffffffffffffffff1673ffffffffffffffffffffffffffffffffffffffff16815260200190815260200160002054905085811015611fc1576040517f08c379a0000000000000000000000000000000000000000000000000000000008152600401611fb890614240565b60405180910390fd5b8581036065600089815260200190815260200160002060008b73ffffffffffffffffffffffffffffffffffffffff1673ffffffffffffffffffffffffffffffffffffffff16815260200190815260200160002081905550856065600089815260200190815260200160002060008a73ffffffffffffffffffffffffffffffffffffffff1673ffffffffffffffffffffffffffffffffffffffff16815260200190815260200160002060008282546120789190614260565b925050819055508773ffffffffffffffffffffffffffffffffffffffff168973ffffffffffffffffffffffffffffffffffffffff168573ffffffffffffffffffffffffffffffffffffffff167fc3d58168c5ae7397731d063d5bbf3d657854427343f4c083240f7aacaa2d0f628a8a6040516120f5929190614675565b60405180910390a461210b848a8a86868a61221c565b612119848a8a8a8a8a61264e565b505050505050505050565b60007fd9b67a26000000000000000000000000000000000000000000000000000000007bffffffffffffffffffffffffffffffffffffffffffffffffffffffff1916827bffffffffffffffffffffffffffffffffffffffffffffffffffffffff191614806121ef57507f0e89341c000000000000000000000000000000000000000000000000000000007bffffffffffffffffffffffffffffffffffffffffffffffffffffffff1916827bffffffffffffffffffffffffffffffffffffffffffffffffffffffff1916145b806121ff57506121fe82612825565b5b9050919050565b61221486868686868661288f565b505050505050565b505050505050565b6122438473ffffffffffffffffffffffffffffffffffffffff16611952565b156123f3578373ffffffffffffffffffffffffffffffffffffffff1663bc197c8187878686866040518663ffffffff1660e01b8152600401612289959493929190614702565b6020604051808303816000875af19250505080156122c557506040513d601f19601f820116820180604052508101906122c2919061477f565b60015b61236a576122d16147b9565b806308c379a00361232d57506122e56147db565b806122f0575061232f565b806040517f08c379a000000000000000000000000000000000000000000000000000000000815260040161232491906131c5565b60405180910390fd5b505b6040517f08c379a0000000000000000000000000000000000000000000000000000000008152600401612361906148dd565b60405180910390fd5b63bc197c8160e01b7bffffffffffffffffffffffffffffffffffffffffffffffffffffffff1916817bffffffffffffffffffffffffffffffffffffffffffffffffffffffff1916146123f1576040517f08c379a00000000000000000000000000000000000000000000000000000000081526004016123e89061496f565b60405180910390fd5b505b505050505050565b6124058282610f2f565b61247c5761241281612a5f565b6124208360001c6020612a8c565b604051602001612431929190614a63565b6040516020818303038152906040526040517f08c379a000000000000000000000000000000000000000000000000000000000815260040161247391906131c5565b60405180910390fd5b5050565b6000819050919050565b6000819050919050565b61249d81611952565b6124dc576040517f08c379a00000000000000000000000000000000000000000000000000000000081526004016124d390614b0f565b60405180910390fd5b806125097f360894a13ba1a3210667c828492db98dca3e2076cc3735a920a3ca505d382bbc60001b612480565b60000160006101000a81548173ffffffffffffffffffffffffffffffffffffffff021916908373ffffffffffffffffffffffffffffffffffffffff16021790555050565b61255683612cc8565b6000825111806125635750805b15612574576125728383612d17565b505b505050565b600060019054906101000a900460ff166125c8576040517f08c379a00000000000000000000000000000000000000000000000000000000081526004016125bf906144c5565b60405180910390fd5b6125d181612dfb565b50565b60606000600167ffffffffffffffff8111156125f3576125f2613279565b5b6040519080825280602002602001820160405280156126215781602001602082028036833780820191505090505b509050828160008151811061263957612638613e73565b5b60200260200101818152505080915050919050565b61266d8473ffffffffffffffffffffffffffffffffffffffff16611952565b1561281d578373ffffffffffffffffffffffffffffffffffffffff1663f23a6e6187878686866040518663ffffffff1660e01b81526004016126b3959493929190614b2f565b6020604051808303816000875af19250505080156126ef57506040513d601f19601f820116820180604052508101906126ec919061477f565b60015b612794576126fb6147b9565b806308c379a003612757575061270f6147db565b8061271a5750612759565b806040517f08c379a000000000000000000000000000000000000000000000000000000000815260040161274e91906131c5565b60405180910390fd5b505b6040517f08c379a000000000000000000000000000000000000000000000000000000000815260040161278b906148dd565b60405180910390fd5b63f23a6e6160e01b7bffffffffffffffffffffffffffffffffffffffffffffffffffffffff1916817bffffffffffffffffffffffffffffffffffffffffffffffffffffffff19161461281b576040517f08c379a00000000000000000000000000000000000000000000000000000000081526004016128129061496f565b60405180910390fd5b505b505050505050565b60007f01ffc9a7000000000000000000000000000000000000000000000000000000007bffffffffffffffffffffffffffffffffffffffffffffffffffffffff1916827bffffffffffffffffffffffffffffffffffffffffffffffffffffffff1916149050919050565b61289d868686868686612e15565b600073ffffffffffffffffffffffffffffffffffffffff168573ffffffffffffffffffffffffffffffffffffffff160361294e5760005b835181101561294c578281815181106128f0576128ef613e73565b5b602002602001015160c9600086848151811061290f5761290e613e73565b5b6020026020010151815260200190815260200160002060008282546129349190614260565b925050819055508061294590613ed1565b90506128d4565b505b600073ffffffffffffffffffffffffffffffffffffffff168473ffffffffffffffffffffffffffffffffffffffff1603612a575760005b8351811015612a555760008482815181106129a3576129a2613e73565b5b6020026020010151905060008483815181106129c2576129c1613e73565b5b60200260200101519050600060c9600084815260200190815260200160002054905081811015612a27576040517f08c379a0000000000000000000000000000000000000000000000000000000008152600401612a1e90614bfb565b60405180910390fd5b81810360c960008581526020019081526020016000208190555050505080612a4e90613ed1565b9050612985565b505b505050505050565b6060612a858273ffffffffffffffffffffffffffffffffffffffff16601460ff16612a8c565b9050919050565b606060006002836002612a9f9190614c1b565b612aa99190614260565b67ffffffffffffffff811115612ac257612ac1613279565b5b6040519080825280601f01601f191660200182016040528015612af45781602001600182028036833780820191505090505b5090507f300000000000000000000000000000000000000000000000000000000000000081600081518110612b2c57612b2b613e73565b5b60200101907effffffffffffffffffffffffffffffffffffffffffffffffffffffffffffff1916908160001a9053507f780000000000000000000000000000000000000000000000000000000000000081600181518110612b9057612b8f613e73565b5b60200101907effffffffffffffffffffffffffffffffffffffffffffffffffffffffffffff1916908160001a90535060006001846002612bd09190614c1b565b612bda9190614260565b90505b6001811115612c7a577f3031323334353637383961626364656600000000000000000000000000000000600f861660108110612c1c57612c1b613e73565b5b1a60f81b828281518110612c3357612c32613e73565b5b60200101907effffffffffffffffffffffffffffffffffffffffffffffffffffffffffffff1916908160001a905350600485901c945080612c7390614c75565b9050612bdd565b5060008414612cbe576040517f08c379a0000000000000000000000000000000000000000000000000000000008152600401612cb590614cea565b60405180910390fd5b8091505092915050565b612cd181612494565b8073ffffffffffffffffffffffffffffffffffffffff167fbc7cd75a20ee27fd9adebab32041f755214dbc6bffa90cc0225b39da2e5c2d3b60405160405180910390a250565b6060612d2283611952565b612d61576040517f08c379a0000000000000000000000000000000000000000000000000000000008152600401612d5890614d7c565b60405180910390fd5b6000808473ffffffffffffffffffffffffffffffffffffffff1684604051612d899190614dd8565b600060405180830381855af49150503d8060008114612dc4576040519150601f19603f3d011682016040523d82523d6000602084013e612dc9565b606091505b5091509150612df18282604051806060016040528060278152602001614df060279139612e1d565b9250505092915050565b8060679080519060200190612e11929190612e8f565b5050565b505050505050565b60608315612e2d57829050612e38565b612e378383612e3f565b5b9392505050565b600082511115612e525781518083602001fd5b806040517f08c379a0000000000000000000000000000000000000000000000000000000008152600401612e8691906131c5565b60405180910390fd5b828054612e9b90613b68565b90600052602060002090601f016020900481019282612ebd5760008555612f04565b82601f10612ed657805160ff1916838001178555612f04565b82800160010185558215612f04579182015b82811115612f03578251825591602001919060010190612ee8565b5b509050612f119190612f15565b5090565b5b80821115612f2e576000816000905550600101612f16565b5090565b6000604051905090565b600080fd5b600080fd5b600073ffffffffffffffffffffffffffffffffffffffff82169050919050565b6000612f7182612f46565b9050919050565b612f8181612f66565b8114612f8c57600080fd5b50565b600081359050612f9e81612f78565b92915050565b6000819050919050565b612fb781612fa4565b8114612fc257600080fd5b50565b600081359050612fd481612fae565b92915050565b60008060408385031215612ff157612ff0612f3c565b5b6000612fff85828601612f8f565b925050602061301085828601612fc5565b9150509250929050565b61302381612fa4565b82525050565b600060208201905061303e600083018461301a565b92915050565b60007fffffffff0000000000000000000000000000000000000000000000000000000082169050919050565b61307981613044565b811461308457600080fd5b50565b60008135905061309681613070565b92915050565b6000602082840312156130b2576130b1612f3c565b5b60006130c084828501613087565b91505092915050565b60008115159050919050565b6130de816130c9565b82525050565b60006020820190506130f960008301846130d5565b92915050565b60006020828403121561311557613114612f3c565b5b600061312384828501612fc5565b91505092915050565b600081519050919050565b600082825260208201905092915050565b60005b8381101561316657808201518184015260208101905061314b565b83811115613175576000848401525b50505050565b6000601f19601f8301169050919050565b60006131978261312c565b6131a18185613137565b93506131b1818560208601613148565b6131ba8161317b565b840191505092915050565b600060208201905081810360008301526131df818461318c565b905092915050565b6000819050919050565b6131fa816131e7565b811461320557600080fd5b50565b600081359050613217816131f1565b92915050565b60006020828403121561323357613232612f3c565b5b600061324184828501613208565b91505092915050565b613253816131e7565b82525050565b600060208201905061326e600083018461324a565b92915050565b600080fd5b7f4e487b7100000000000000000000000000000000000000000000000000000000600052604160045260246000fd5b6132b18261317b565b810181811067ffffffffffffffff821117156132d0576132cf613279565b5b80604052505050565b60006132e3612f32565b90506132ef82826132a8565b919050565b600067ffffffffffffffff82111561330f5761330e613279565b5b602082029050602081019050919050565b600080fd5b6000613338613333846132f4565b6132d9565b9050808382526020820190506020840283018581111561335b5761335a613320565b5b835b8181101561338457806133708882612fc5565b84526020840193505060208101905061335d565b5050509392505050565b600082601f8301126133a3576133a2613274565b5b81356133b3848260208601613325565b91505092915050565b600080fd5b600067ffffffffffffffff8211156133dc576133db613279565b5b6133e58261317b565b9050602081019050919050565b82818337600083830152505050565b600061341461340f846133c1565b6132d9565b9050828152602081018484840111156134305761342f6133bc565b5b61343b8482856133f2565b509392505050565b600082601f83011261345857613457613274565b5b8135613468848260208601613401565b91505092915050565b600080600080600060a0868803121561348d5761348c612f3c565b5b600061349b88828901612f8f565b95505060206134ac88828901612f8f565b945050604086013567ffffffffffffffff8111156134cd576134cc612f41565b5b6134d98882890161338e565b935050606086013567ffffffffffffffff8111156134fa576134f9612f41565b5b6135068882890161338e565b925050608086013567ffffffffffffffff81111561352757613526612f41565b5b61353388828901613443565b9150509295509295909350565b6000806040838503121561355757613556612f3c565b5b600061356585828601613208565b925050602061357685828601612f8f565b9150509250929050565b60006020828403121561359657613595612f3c565b5b60006135a484828501612f8f565b91505092915050565b600067ffffffffffffffff8211156135c8576135c7613279565b5b602082029050602081019050919050565b60006135ec6135e7846135ad565b6132d9565b9050808382526020820190506020840283018581111561360f5761360e613320565b5b835b8181101561363857806136248882612f8f565b845260208401935050602081019050613611565b5050509392505050565b600082601f83011261365757613656613274565b5b81356136678482602086016135d9565b91505092915050565b6000806040838503121561368757613686612f3c565b5b600083013567ffffffffffffffff8111156136a5576136a4612f41565b5b6136b185828601613642565b925050602083013567ffffffffffffffff8111156136d2576136d1612f41565b5b6136de8582860161338e565b9150509250929050565b600081519050919050565b600082825260208201905092915050565b6000819050602082019050919050565b61371d81612fa4565b82525050565b600061372f8383613714565b60208301905092915050565b6000602082019050919050565b6000613753826136e8565b61375d81856136f3565b935061376883613704565b8060005b838110156137995781516137808882613723565b975061378b8361373b565b92505060018101905061376c565b5085935050505092915050565b600060208201905081810360008301526137c08184613748565b905092915050565b600080604083850312156137df576137de612f3c565b5b60006137ed85828601612f8f565b925050602083013567ffffffffffffffff81111561380e5761380d612f41565b5b61381a85828601613443565b9150509250929050565b61382d816130c9565b811461383857600080fd5b50565b60008135905061384a81613824565b92915050565b6000806040838503121561386757613866612f3c565b5b600061387585828601612f8f565b92505060206138868582860161383b565b9150509250929050565b600067ffffffffffffffff8211156138ab576138aa613279565b5b6138b48261317b565b9050602081019050919050565b60006138d46138cf84613890565b6132d9565b9050828152602081018484840111156138f0576138ef6133bc565b5b6138fb8482856133f2565b509392505050565b600082601f83011261391857613917613274565b5b81356139288482602086016138c1565b91505092915050565b6000806000806080858703121561394b5761394a612f3c565b5b600061395987828801612f8f565b945050602061396a87828801612fc5565b935050604085013567ffffffffffffffff81111561398b5761398a612f41565b5b61399787828801613903565b925050606085013567ffffffffffffffff8111156139b8576139b7612f41565b5b6139c487828801613443565b91505092959194509250565b600080604083850312156139e7576139e6612f3c565b5b60006139f585828601612f8f565b9250506020613a0685828601612f8f565b9150509250929050565b600080600080600060a08688031215613a2c57613a2b612f3c565b5b6000613a3a88828901612f8f565b9550506020613a4b88828901612f8f565b9450506040613a5c88828901612fc5565b9350506060613a6d88828901612fc5565b925050608086013567ffffffffffffffff811115613a8e57613a8d612f41565b5b613a9a88828901613443565b9150509295509295909350565b7f455243313135353a2061646472657373207a65726f206973206e6f742061207660008201527f616c6964206f776e657200000000000000000000000000000000000000000000602082015250565b6000613b03602a83613137565b9150613b0e82613aa7565b604082019050919050565b60006020820190508181036000830152613b3281613af6565b9050919050565b7f4e487b7100000000000000000000000000000000000000000000000000000000600052602260045260246000fd5b60006002820490506001821680613b8057607f821691505b602082108103613b9357613b92613b39565b5b50919050565b7f455243313135353a2063616c6c6572206973206e6f7420746f6b656e206f776e60008201527f6572206f7220617070726f766564000000000000000000000000000000000000602082015250565b6000613bf5602e83613137565b9150613c0082613b99565b604082019050919050565b60006020820190508181036000830152613c2481613be8565b9050919050565b7f416363657373436f6e74726f6c3a2063616e206f6e6c792072656e6f756e636560008201527f20726f6c657320666f722073656c660000000000000000000000000000000000602082015250565b6000613c87602f83613137565b9150613c9282613c2b565b604082019050919050565b60006020820190508181036000830152613cb681613c7a565b9050919050565b7f46756e6374696f6e206d7573742062652063616c6c6564207468726f7567682060008201527f64656c656761746563616c6c0000000000000000000000000000000000000000602082015250565b6000613d19602c83613137565b9150613d2482613cbd565b604082019050919050565b60006020820190508181036000830152613d4881613d0c565b9050919050565b7f46756e6374696f6e206d7573742062652063616c6c6564207468726f7567682060008201527f6163746976652070726f78790000000000000000000000000000000000000000602082015250565b6000613dab602c83613137565b9150613db682613d4f565b604082019050919050565b60006020820190508181036000830152613dda81613d9e565b9050919050565b7f455243313135353a206163636f756e747320616e6420696473206c656e67746860008201527f206d69736d617463680000000000000000000000000000000000000000000000602082015250565b6000613e3d602983613137565b9150613e4882613de1565b604082019050919050565b60006020820190508181036000830152613e6c81613e30565b9050919050565b7f4e487b7100000000000000000000000000000000000000000000000000000000600052603260045260246000fd5b7f4e487b7100000000000000000000000000000000000000000000000000000000600052601160045260246000fd5b6000613edc82612fa4565b91507fffffffffffffffffffffffffffffffffffffffffffffffffffffffffffffffff8203613f0e57613f0d613ea2565b5b600182019050919050565b7f555550535570677261646561626c653a206d757374206e6f742062652063616c60008201527f6c6564207468726f7567682064656c656761746563616c6c0000000000000000602082015250565b6000613f75603883613137565b9150613f8082613f19565b604082019050919050565b60006020820190508181036000830152613fa481613f68565b9050919050565b7f496e697469616c697a61626c653a20636f6e747261637420697320616c72656160008201527f647920696e697469616c697a6564000000000000000000000000000000000000602082015250565b6000614007602e83613137565b915061401282613fab565b604082019050919050565b6000602082019050818103600083015261403681613ffa565b9050919050565b6000819050919050565b600060ff82169050919050565b6000819050919050565b600061407961407461406f8461403d565b614054565b614047565b9050919050565b6140898161405e565b82525050565b60006020820190506140a46000830184614080565b92915050565b7f455243313135353a2069647320616e6420616d6f756e7473206c656e6774682060008201527f6d69736d61746368000000000000000000000000000000000000000000000000602082015250565b6000614106602883613137565b9150614111826140aa565b604082019050919050565b60006020820190508181036000830152614135816140f9565b9050919050565b7f455243313135353a207472616e7366657220746f20746865207a65726f20616460008201527f6472657373000000000000000000000000000000000000000000000000000000602082015250565b6000614198602583613137565b91506141a38261413c565b604082019050919050565b600060208201905081810360008301526141c78161418b565b9050919050565b7f455243313135353a20696e73756666696369656e742062616c616e636520666f60008201527f72207472616e7366657200000000000000000000000000000000000000000000602082015250565b600061422a602a83613137565b9150614235826141ce565b604082019050919050565b600060208201905081810360008301526142598161421d565b9050919050565b600061426b82612fa4565b915061427683612fa4565b9250827fffffffffffffffffffffffffffffffffffffffffffffffffffffffffffffffff038211156142ab576142aa613ea2565b5b828201905092915050565b600060408201905081810360008301526142d08185613748565b905081810360208301526142e48184613748565b90509392505050565b6000815190506142fc816131f1565b92915050565b60006020828403121561431857614317612f3c565b5b6000614326848285016142ed565b91505092915050565b7f45524331393637557067726164653a206e657720696d706c656d656e7461746960008201527f6f6e206973206e6f742055555053000000000000000000000000000000000000602082015250565b600061438b602e83613137565b91506143968261432f565b604082019050919050565b600060208201905081810360008301526143ba8161437e565b9050919050565b7f45524331393637557067726164653a20756e737570706f727465642070726f7860008201527f6961626c65555549440000000000000000000000000000000000000000000000602082015250565b600061441d602983613137565b9150614428826143c1565b604082019050919050565b6000602082019050818103600083015261444c81614410565b9050919050565b7f496e697469616c697a61626c653a20636f6e7472616374206973206e6f74206960008201527f6e697469616c697a696e67000000000000000000000000000000000000000000602082015250565b60006144af602b83613137565b91506144ba82614453565b604082019050919050565b600060208201905081810360008301526144de816144a2565b9050919050565b7f455243313135353a2073657474696e6720617070726f76616c2073746174757360008201527f20666f722073656c660000000000000000000000000000000000000000000000602082015250565b6000614541602983613137565b915061454c826144e5565b604082019050919050565b6000602082019050818103600083015261457081614534565b9050919050565b7f43616e6e6f742073657420757269207477696365000000000000000000000000600082015250565b60006145ad601483613137565b91506145b882614577565b602082019050919050565b600060208201905081810360008301526145dc816145a0565b9050919050565b7f455243313135353a206d696e7420746f20746865207a65726f2061646472657360008201527f7300000000000000000000000000000000000000000000000000000000000000602082015250565b600061463f602183613137565b915061464a826145e3565b604082019050919050565b6000602082019050818103600083015261466e81614632565b9050919050565b600060408201905061468a600083018561301a565b614697602083018461301a565b9392505050565b6146a781612f66565b82525050565b600081519050919050565b600082825260208201905092915050565b60006146d4826146ad565b6146de81856146b8565b93506146ee818560208601613148565b6146f78161317b565b840191505092915050565b600060a082019050614717600083018861469e565b614724602083018761469e565b81810360408301526147368186613748565b9050818103606083015261474a8185613748565b9050818103608083015261475e81846146c9565b90509695505050505050565b60008151905061477981613070565b92915050565b60006020828403121561479557614794612f3c565b5b60006147a38482850161476a565b91505092915050565b60008160e01c9050919050565b600060033d11156147d85760046000803e6147d56000516147ac565b90505b90565b600060443d10614868576147ed612f32565b60043d036004823e80513d602482011167ffffffffffffffff82111715614815575050614868565b808201805167ffffffffffffffff8111156148335750505050614868565b80602083010160043d038501811115614850575050505050614868565b61485f826020018501866132a8565b82955050505050505b90565b7f455243313135353a207472616e7366657220746f206e6f6e2d4552433131353560008201527f526563656976657220696d706c656d656e746572000000000000000000000000602082015250565b60006148c7603483613137565b91506148d28261486b565b604082019050919050565b600060208201905081810360008301526148f6816148ba565b9050919050565b7f455243313135353a204552433131353552656365697665722072656a6563746560008201527f6420746f6b656e73000000000000000000000000000000000000000000000000602082015250565b6000614959602883613137565b9150614964826148fd565b604082019050919050565b600060208201905081810360008301526149888161494c565b9050919050565b600081905092915050565b7f416363657373436f6e74726f6c3a206163636f756e7420000000000000000000600082015250565b60006149d060178361498f565b91506149db8261499a565b601782019050919050565b60006149f18261312c565b6149fb818561498f565b9350614a0b818560208601613148565b80840191505092915050565b7f206973206d697373696e6720726f6c6520000000000000000000000000000000600082015250565b6000614a4d60118361498f565b9150614a5882614a17565b601182019050919050565b6000614a6e826149c3565b9150614a7a82856149e6565b9150614a8582614a40565b9150614a9182846149e6565b91508190509392505050565b7f455243313936373a206e657720696d706c656d656e746174696f6e206973206e60008201527f6f74206120636f6e747261637400000000000000000000000000000000000000602082015250565b6000614af9602d83613137565b9150614b0482614a9d565b604082019050919050565b60006020820190508181036000830152614b2881614aec565b9050919050565b600060a082019050614b44600083018861469e565b614b51602083018761469e565b614b5e604083018661301a565b614b6b606083018561301a565b8181036080830152614b7d81846146c9565b90509695505050505050565b7f455243313135353a206275726e20616d6f756e74206578636565647320746f7460008201527f616c537570706c79000000000000000000000000000000000000000000000000602082015250565b6000614be5602883613137565b9150614bf082614b89565b604082019050919050565b60006020820190508181036000830152614c1481614bd8565b9050919050565b6000614c2682612fa4565b9150614c3183612fa4565b9250817fffffffffffffffffffffffffffffffffffffffffffffffffffffffffffffffff0483118215151615614c6a57614c69613ea2565b5b828202905092915050565b6000614c8082612fa4565b915060008203614c9357614c92613ea2565b5b600182039050919050565b7f537472696e67733a20686578206c656e67746820696e73756666696369656e74600082015250565b6000614cd4602083613137565b9150614cdf82614c9e565b602082019050919050565b60006020820190508181036000830152614d0381614cc7565b9050919050565b7f416464726573733a2064656c65676174652063616c6c20746f206e6f6e2d636f60008201527f6e74726163740000000000000000000000000000000000000000000000000000602082015250565b6000614d66602683613137565b9150614d7182614d0a565b604082019050919050565b60006020820190508181036000830152614d9581614d59565b9050919050565b600081905092915050565b6000614db2826146ad565b614dbc8185614d9c565b9350614dcc818560208601613148565b80840191505092915050565b6000614de48284614da7565b91508190509291505056fe416464726573733a206c6f772d6c6576656c2064656c65676174652063616c6c206661696c6564a2646970667358221220f5a617c2944a7a239a83b4d42771645725c5349a047f18e30f10d80f0b274ff564736f6c634300080d0033",
  "immutableReferences": {
    "997": [
      {
        "length": 32,
        "start": 2222
      },
      {
        "length": 32,
        "start": 2364
      },
      {
        "length": 32,
        "start": 2895
      },
      {
        "length": 32,
        "start": 3037
      },
      {
        "length": 32,
        "start": 3233
      }
    ]
  },
  "source": "// SPDX-License-Identifier: MIT\npragma solidity ^0.8.9;\n\nimport \"@openzeppelin/contracts-upgradeable/token/ERC1155/ERC1155Upgradeable.sol\";\nimport \"@openzeppelin/contracts-upgradeable/access/AccessControlUpgradeable.sol\";\nimport \"@openzeppelin/contracts-upgradeable/token/ERC1155/extensions/ERC1155SupplyUpgradeable.sol\";\nimport \"@openzeppelin/contracts-upgradeable/proxy/utils/Initializable.sol\";\nimport \"@openzeppelin/contracts-upgradeable/proxy/utils/UUPSUpgradeable.sol\";\nimport \"@openzeppelin/contracts/utils/Counters.sol\";\n\ncontract Space3 is\n    Initializable,\n    ERC1155Upgradeable,\n    AccessControlUpgradeable,\n    ERC1155SupplyUpgradeable,\n    UUPSUpgradeable\n{\n    using Counters for Counters.Counter;\n\n    Counters.Counter private _tokenIdCounter;\n\n    mapping(uint256 => string) private _uris;\n\n    bytes32 public constant MINTER_ROLE = keccak256(\"MINTER_ROLE\");\n    bytes32 public constant UPGRADER_ROLE = keccak256(\"UPGRADER_ROLE\");\n\n    //  @custom:oz-upgrades-unsafe-allow constructor\n    constructor() {\n        // _disableInitializers();\n    }\n\n    function initialize() public initializer {\n        __ERC1155_init(\"\");\n        __AccessControl_init();\n        __ERC1155Supply_init();\n        __UUPSUpgradeable_init();\n\n        _grantRole(DEFAULT_ADMIN_ROLE, msg.sender);\n        _grantRole(MINTER_ROLE, msg.sender);\n        _grantRole(UPGRADER_ROLE, msg.sender);\n    }\n\n    function mint(\n        address account,\n        uint256 amount,\n        string memory url,\n        bytes memory data\n    ) public onlyRole(MINTER_ROLE) {\n        uint256 tokenId = _tokenIdCounter.current();\n        _tokenIdCounter.increment();\n\n        _setTokenUri(tokenId, url);\n\n        _mint(account, tokenId, amount, data);\n    }\n\n    function getCurrentTokenId() public view returns (uint256) {\n        return _tokenIdCounter.current();\n    }\n\n    function uri(uint256 tokenId) public view override returns (string memory) {\n        return (_uris[tokenId]);\n    }\n\n    function _setTokenUri(uint256 tokenId, string memory url) private {\n        require(bytes(_uris[tokenId]).length == 0, \"Cannot set uri twice\");\n        _uris[tokenId] = url;\n    }\n\n    function _authorizeUpgrade(address newImplementation)\n        internal\n        override\n        onlyRole(UPGRADER_ROLE)\n    {}\n\n    // The following functions are overrides required by Solidity.\n\n    function _beforeTokenTransfer(\n        address operator,\n        address from,\n        address to,\n        uint256[] memory ids,\n        uint256[] memory amounts,\n        bytes memory data\n    ) internal override(ERC1155Upgradeable, ERC1155SupplyUpgradeable) {\n        super._beforeTokenTransfer(operator, from, to, ids, amounts, data);\n    }\n\n    function supportsInterface(bytes4 interfaceId)\n        public\n        view\n        override(ERC1155Upgradeable, AccessControlUpgradeable)\n        returns (bool)\n    {\n        return super.supportsInterface(interfaceId);\n    }\n}\n",
  "sourcePath": "/Users/lucas/Desktop/A8/Smartcontract/Voting/contracts/A8-NFT-1155.sol",
  "compiler": {
    "name": "solc",
    "version": "0.8.13+commit.abaa5c0e.Emscripten.clang"
  },
  "schemaVersion": "3.4.11",
  "updatedAt": "2023-03-02T03:24:40.440Z",
  "devdoc": {
    "kind": "dev",
    "methods": {
      "balanceOf(address,uint256)": {
        "details": "See {IERC1155-balanceOf}. Requirements: - `account` cannot be the zero address."
      },
      "balanceOfBatch(address[],uint256[])": {
        "details": "See {IERC1155-balanceOfBatch}. Requirements: - `accounts` and `ids` must have the same length."
      },
      "exists(uint256)": {
        "details": "Indicates whether any token exist with a given id, or not."
      },
      "getRoleAdmin(bytes32)": {
        "details": "Returns the admin role that controls `role`. See {grantRole} and {revokeRole}. To change a role's admin, use {_setRoleAdmin}."
      },
      "grantRole(bytes32,address)": {
        "details": "Grants `role` to `account`. If `account` had not been already granted `role`, emits a {RoleGranted} event. Requirements: - the caller must have ``role``'s admin role. May emit a {RoleGranted} event."
      },
      "hasRole(bytes32,address)": {
        "details": "Returns `true` if `account` has been granted `role`."
      },
      "isApprovedForAll(address,address)": {
        "details": "See {IERC1155-isApprovedForAll}."
      },
      "proxiableUUID()": {
        "details": "Implementation of the ERC1822 {proxiableUUID} function. This returns the storage slot used by the implementation. It is used to validate the implementation's compatibility when performing an upgrade. IMPORTANT: A proxy pointing at a proxiable contract should not be considered proxiable itself, because this risks bricking a proxy that upgrades to it, by delegating to itself until out of gas. Thus it is critical that this function revert if invoked through a proxy. This is guaranteed by the `notDelegated` modifier."
      },
      "renounceRole(bytes32,address)": {
        "details": "Revokes `role` from the calling account. Roles are often managed via {grantRole} and {revokeRole}: this function's purpose is to provide a mechanism for accounts to lose their privileges if they are compromised (such as when a trusted device is misplaced). If the calling account had been revoked `role`, emits a {RoleRevoked} event. Requirements: - the caller must be `account`. May emit a {RoleRevoked} event."
      },
      "revokeRole(bytes32,address)": {
        "details": "Revokes `role` from `account`. If `account` had been granted `role`, emits a {RoleRevoked} event. Requirements: - the caller must have ``role``'s admin role. May emit a {RoleRevoked} event."
      },
      "safeBatchTransferFrom(address,address,uint256[],uint256[],bytes)": {
        "details": "See {IERC1155-safeBatchTransferFrom}."
      },
      "safeTransferFrom(address,address,uint256,uint256,bytes)": {
        "details": "See {IERC1155-safeTransferFrom}."
      },
      "setApprovalForAll(address,bool)": {
        "details": "See {IERC1155-setApprovalForAll}."
      },
      "totalSupply(uint256)": {
        "details": "Total amount of tokens in with a given id."
      },
      "upgradeTo(address)": {
        "details": "Upgrade the implementation of the proxy to `newImplementation`. Calls {_authorizeUpgrade}. Emits an {Upgraded} event."
      },
      "upgradeToAndCall(address,bytes)": {
        "details": "Upgrade the implementation of the proxy to `newImplementation`, and subsequently execute the function call encoded in `data`. Calls {_authorizeUpgrade}. Emits an {Upgraded} event."
      }
    },
    "version": 1
  },
  "userdoc": {
    "kind": "user",
    "methods": {},
    "version": 1
  }
}