{
  "contractName": "Voting",
  "abi": [
    {
      "inputs": [
        {
          "internalType": "contract IERC20",
          "name": "_token",
          "type": "address"
        }
      ],
      "stateMutability": "nonpayable",
      "type": "constructor"
    },
    {
      "anonymous": false,
      "inputs": [
        {
          "indexed": false,
          "internalType": "string",
          "name": "voteTitle",
          "type": "string"
        }
      ],
      "name": "CreateVoteSubject",
      "type": "event"
    },
    {
      "anonymous": false,
      "inputs": [
        {
          "indexed": true,
          "internalType": "address",
          "name": "previousOwner",
          "type": "address"
        },
        {
          "indexed": true,
          "internalType": "address",
          "name": "newOwner",
          "type": "address"
        }
      ],
      "name": "OwnershipTransferred",
      "type": "event"
    },
    {
      "anonymous": false,
      "inputs": [
        {
          "indexed": false,
          "internalType": "address",
          "name": "voter",
          "type": "address"
        },
        {
          "indexed": false,
          "internalType": "uint256",
          "name": "voteId",
          "type": "uint256"
        },
        {
          "indexed": false,
          "internalType": "bool",
          "name": "answer",
          "type": "bool"
        },
        {
          "indexed": false,
          "internalType": "uint256",
          "name": "amount",
          "type": "uint256"
        }
      ],
      "name": "Vote",
      "type": "event"
    },
    {
      "inputs": [],
      "name": "maxRequireVoters",
      "outputs": [
        {
          "internalType": "uint256",
          "name": "",
          "type": "uint256"
        }
      ],
      "stateMutability": "view",
      "type": "function"
    },
    {
      "inputs": [],
      "name": "owner",
      "outputs": [
        {
          "internalType": "address",
          "name": "",
          "type": "address"
        }
      ],
      "stateMutability": "view",
      "type": "function"
    },
    {
      "inputs": [],
      "name": "renounceOwnership",
      "outputs": [],
      "stateMutability": "nonpayable",
      "type": "function"
    },
    {
      "inputs": [],
      "name": "test",
      "outputs": [
        {
          "internalType": "uint256",
          "name": "",
          "type": "uint256"
        }
      ],
      "stateMutability": "view",
      "type": "function"
    },
    {
      "inputs": [],
      "name": "token",
      "outputs": [
        {
          "internalType": "contract IERC20",
          "name": "",
          "type": "address"
        }
      ],
      "stateMutability": "view",
      "type": "function"
    },
    {
      "inputs": [],
      "name": "totalBalances",
      "outputs": [
        {
          "internalType": "uint256",
          "name": "",
          "type": "uint256"
        }
      ],
      "stateMutability": "view",
      "type": "function"
    },
    {
      "inputs": [
        {
          "internalType": "address",
          "name": "newOwner",
          "type": "address"
        }
      ],
      "name": "transferOwnership",
      "outputs": [],
      "stateMutability": "nonpayable",
      "type": "function"
    },
    {
      "inputs": [],
      "name": "voteId",
      "outputs": [
        {
          "internalType": "uint256",
          "name": "",
          "type": "uint256"
        }
      ],
      "stateMutability": "view",
      "type": "function"
    },
    {
      "inputs": [
        {
          "internalType": "uint256",
          "name": "",
          "type": "uint256"
        }
      ],
      "name": "voteSubjects",
      "outputs": [
        {
          "internalType": "string",
          "name": "title",
          "type": "string"
        },
        {
          "internalType": "uint256",
          "name": "totalVoters",
          "type": "uint256"
        }
      ],
      "stateMutability": "view",
      "type": "function"
    },
    {
      "inputs": [
        {
          "internalType": "uint256",
          "name": "",
          "type": "uint256"
        },
        {
          "internalType": "address",
          "name": "",
          "type": "address"
        }
      ],
      "name": "voted",
      "outputs": [
        {
          "internalType": "uint256",
          "name": "balances",
          "type": "uint256"
        },
        {
          "internalType": "uint256",
          "name": "timeVote",
          "type": "uint256"
        },
        {
          "internalType": "bool",
          "name": "answer",
          "type": "bool"
        }
      ],
      "stateMutability": "view",
      "type": "function"
    },
    {
      "inputs": [
        {
          "internalType": "string",
          "name": "voteTitle",
          "type": "string"
        }
      ],
      "name": "createVoteSubject",
      "outputs": [],
      "stateMutability": "nonpayable",
      "type": "function"
    },
    {
      "inputs": [
        {
          "internalType": "uint256",
          "name": "_voteId",
          "type": "uint256"
        },
        {
          "internalType": "bool",
          "name": "_answer",
          "type": "bool"
        },
        {
          "internalType": "uint256",
          "name": "_amount",
          "type": "uint256"
        }
      ],
      "name": "vote",
      "outputs": [],
      "stateMutability": "nonpayable",
      "type": "function"
    },
    {
      "inputs": [
        {
          "internalType": "uint256",
          "name": "_voteId",
          "type": "uint256"
        }
      ],
      "name": "getTotalUserVote",
      "outputs": [
        {
          "internalType": "address[]",
          "name": "",
          "type": "address[]"
        }
      ],
      "stateMutability": "view",
      "type": "function"
    }
  ],
  "bytecode": "0x60806040523480156200001157600080fd5b5060405162001c2a38038062001c2a8339818101604052810190620000379190620001f0565b620000576200004b620000a660201b60201c565b620000ae60201b60201c565b80600160006101000a81548173ffffffffffffffffffffffffffffffffffffffff021916908373ffffffffffffffffffffffffffffffffffffffff160217905550600280819055505062000222565b600033905090565b60008060009054906101000a900473ffffffffffffffffffffffffffffffffffffffff169050816000806101000a81548173ffffffffffffffffffffffffffffffffffffffff021916908373ffffffffffffffffffffffffffffffffffffffff1602179055508173ffffffffffffffffffffffffffffffffffffffff168173ffffffffffffffffffffffffffffffffffffffff167f8be0079c531659141344cd1fd0a4f28419497f9722a3daafe3b4186f6b6457e060405160405180910390a35050565b600080fd5b600073ffffffffffffffffffffffffffffffffffffffff82169050919050565b6000620001a48262000177565b9050919050565b6000620001b88262000197565b9050919050565b620001ca81620001ab565b8114620001d657600080fd5b50565b600081519050620001ea81620001bf565b92915050565b60006020828403121562000209576200020862000172565b5b60006200021984828501620001d9565b91505092915050565b6119f880620002326000396000f3fe608060405234801561001057600080fd5b50600436106100ce5760003560e01c8063a69a2ad11161008c578063f2fde38b11610066578063f2fde38b14610202578063f8a8fd6d1461021e578063fbb396511461023c578063fc0c546a1461025a576100ce565b8063a69a2ad1146101ac578063c528827a146101ca578063d46a5d7e146101e6576100ce565b8062f413d6146100d35780630fb2d182146100f15780635277b4ae14610121578063715018a61461015357806385e06e8c1461015d5780638da5cb5b1461018e575b600080fd5b6100db610278565b6040516100e89190610ec1565b60405180910390f35b61010b60048036038101906101069190610f1c565b61027e565b6040516101189190611039565b60405180910390f35b61013b60048036038101906101369190611087565b610322565b60405161014a939291906110e2565b60405180910390f35b61015b610366565b005b61017760048036038101906101729190610f1c565b61037a565b6040516101859291906111b2565b60405180910390f35b610196610426565b6040516101a391906111f1565b60405180910390f35b6101b461044f565b6040516101c19190610ec1565b60405180910390f35b6101e460048036038101906101df9190611341565b610455565b005b61020060048036038101906101fb91906113b6565b6104e2565b005b61021c60048036038101906102179190611409565b610a79565b005b610226610afc565b6040516102339190610ec1565b60405180910390f35b610244610b02565b6040516102519190610ec1565b60405180910390f35b610262610b08565b60405161026f9190611495565b60405180910390f35b60025481565b60606006600083815260200190815260200160002060020180548060200260200160405190810160405280929190818152602001828054801561031657602002820191906000526020600020905b8160009054906101000a900473ffffffffffffffffffffffffffffffffffffffff1673ffffffffffffffffffffffffffffffffffffffff16815260200190600101908083116102cc575b50505050509050919050565b6007602052816000526040600020602052806000526040600020600091509150508060000154908060010154908060020160009054906101000a900460ff16905083565b61036e610b2e565b6103786000610bac565b565b600660205280600052604060002060009150905080600001805461039d906114df565b80601f01602080910402602001604051908101604052809291908181526020018280546103c9906114df565b80156104165780601f106103eb57610100808354040283529160200191610416565b820191906000526020600020905b8154815290600101906020018083116103f957829003601f168201915b5050505050908060010154905082565b60008060009054906101000a900473ffffffffffffffffffffffffffffffffffffffff16905090565b60035481565b61045d610b2e565b600060066000600454815260200190815260200160002090508181600001908051906020019061048e929190610e05565b50600460008154809291906104a29061153f565b91905055507f10d6dd32fc30604c4428896c514b458b8832a1aa400d459474c42ec6d3b77535826040516104d69190611587565b60405180910390a15050565b8281600082101580156104f757506004548211155b610536576040517f08c379a000000000000000000000000000000000000000000000000000000000815260040161052d906115f5565b60405180910390fd5b600160009054906101000a900473ffffffffffffffffffffffffffffffffffffffff1673ffffffffffffffffffffffffffffffffffffffff166370a08231336040518263ffffffff1660e01b815260040161059191906111f1565b602060405180830381865afa1580156105ae573d6000803e3d6000fd5b505050506040513d601f19601f820116820180604052508101906105d2919061162a565b81111580156105e15750600081115b610620576040517f08c379a0000000000000000000000000000000000000000000000000000000008152600401610617906116a3565b60405180910390fd5b6000600160009054906101000a900473ffffffffffffffffffffffffffffffffffffffff1673ffffffffffffffffffffffffffffffffffffffff1663dd62ed3e33306040518363ffffffff1660e01b815260040161067f9291906116c3565b602060405180830381865afa15801561069c573d6000803e3d6000fd5b505050506040513d601f19601f820116820180604052508101906106c0919061162a565b905081811015610705576040517f08c379a00000000000000000000000000000000000000000000000000000000081526004016106fc90611738565b60405180910390fd5b856000600660008381526020019081526020016000209050600060066000848152602001908152602001600020600201905080309080600181540180825580915050600190039060005260206000200160009091909190916101000a81548173ffffffffffffffffffffffffffffffffffffffff021916908373ffffffffffffffffffffffffffffffffffffffff16021790555060028260010154106107af576107ae83610c70565b5b600160009054906101000a900473ffffffffffffffffffffffffffffffffffffffff1673ffffffffffffffffffffffffffffffffffffffff166323b872dd33308a6040518463ffffffff1660e01b815260040161080e93929190611758565b6020604051808303816000875af115801561082d573d6000803e3d6000fd5b505050506040513d601f19601f8201168201806040525081019061085191906117a4565b50866003600082825461086491906117d1565b9250508190555086600760008b815260200190815260200160002060003373ffffffffffffffffffffffffffffffffffffffff1673ffffffffffffffffffffffffffffffffffffffff16815260200190815260200160002060000160008282546108ce91906117d1565b9250508190555042600760008b815260200190815260200160002060003373ffffffffffffffffffffffffffffffffffffffff1673ffffffffffffffffffffffffffffffffffffffff1681526020019081526020016000206001018190555087600760008b815260200190815260200160002060003373ffffffffffffffffffffffffffffffffffffffff1673ffffffffffffffffffffffffffffffffffffffff16815260200190815260200160002060020160006101000a81548160ff0219169083151502179055506000600660008b8152602001908152602001600020905080600201339080600181540180825580915050600190039060005260206000200160009091909190916101000a81548173ffffffffffffffffffffffffffffffffffffffff021916908373ffffffffffffffffffffffffffffffffffffffff1602179055506001816001016000828254610a2991906117d1565b925050819055507f65f8c50a40ae46ed6b244ba59b93d321216c9638f156760e7f851c2536a3add2338b8b8b604051610a659493929190611827565b60405180910390a150505050505050505050565b610a81610b2e565b600073ffffffffffffffffffffffffffffffffffffffff168173ffffffffffffffffffffffffffffffffffffffff1603610af0576040517f08c379a0000000000000000000000000000000000000000000000000000000008152600401610ae7906118de565b60405180910390fd5b610af981610bac565b50565b60055481565b60045481565b600160009054906101000a900473ffffffffffffffffffffffffffffffffffffffff1681565b610b36610dfd565b73ffffffffffffffffffffffffffffffffffffffff16610b54610426565b73ffffffffffffffffffffffffffffffffffffffff1614610baa576040517f08c379a0000000000000000000000000000000000000000000000000000000008152600401610ba19061194a565b60405180910390fd5b565b60008060009054906101000a900473ffffffffffffffffffffffffffffffffffffffff169050816000806101000a81548173ffffffffffffffffffffffffffffffffffffffff021916908373ffffffffffffffffffffffffffffffffffffffff1602179055508173ffffffffffffffffffffffffffffffffffffffff168173ffffffffffffffffffffffffffffffffffffffff167f8be0079c531659141344cd1fd0a4f28419497f9722a3daafe3b4186f6b6457e060405160405180910390a35050565b60006006600083815260200190815260200160002060020180549050905060005b81811015610df8576000600660008581526020019081526020016000206002018281548110610cc357610cc261196a565b5b9060005260206000200160009054906101000a900473ffffffffffffffffffffffffffffffffffffffff169050600160009054906101000a900473ffffffffffffffffffffffffffffffffffffffff1673ffffffffffffffffffffffffffffffffffffffff1663a9059cbb826007600088815260200190815260200160002060008573ffffffffffffffffffffffffffffffffffffffff1673ffffffffffffffffffffffffffffffffffffffff168152602001908152602001600020600001546040518363ffffffff1660e01b8152600401610da0929190611999565b6020604051808303816000875af1158015610dbf573d6000803e3d6000fd5b505050506040513d601f19601f82011682018060405250810190610de391906117a4565b50508080610df09061153f565b915050610c91565b505050565b600033905090565b828054610e11906114df565b90600052602060002090601f016020900481019282610e335760008555610e7a565b82601f10610e4c57805160ff1916838001178555610e7a565b82800160010185558215610e7a579182015b82811115610e79578251825591602001919060010190610e5e565b5b509050610e879190610e8b565b5090565b5b80821115610ea4576000816000905550600101610e8c565b5090565b6000819050919050565b610ebb81610ea8565b82525050565b6000602082019050610ed66000830184610eb2565b92915050565b6000604051905090565b600080fd5b600080fd5b610ef981610ea8565b8114610f0457600080fd5b50565b600081359050610f1681610ef0565b92915050565b600060208284031215610f3257610f31610ee6565b5b6000610f4084828501610f07565b91505092915050565b600081519050919050565b600082825260208201905092915050565b6000819050602082019050919050565b600073ffffffffffffffffffffffffffffffffffffffff82169050919050565b6000610fa082610f75565b9050919050565b610fb081610f95565b82525050565b6000610fc28383610fa7565b60208301905092915050565b6000602082019050919050565b6000610fe682610f49565b610ff08185610f54565b9350610ffb83610f65565b8060005b8381101561102c5781516110138882610fb6565b975061101e83610fce565b925050600181019050610fff565b5085935050505092915050565b600060208201905081810360008301526110538184610fdb565b905092915050565b61106481610f95565b811461106f57600080fd5b50565b6000813590506110818161105b565b92915050565b6000806040838503121561109e5761109d610ee6565b5b60006110ac85828601610f07565b92505060206110bd85828601611072565b9150509250929050565b60008115159050919050565b6110dc816110c7565b82525050565b60006060820190506110f76000830186610eb2565b6111046020830185610eb2565b61111160408301846110d3565b949350505050565b600081519050919050565b600082825260208201905092915050565b60005b83811015611153578082015181840152602081019050611138565b83811115611162576000848401525b50505050565b6000601f19601f8301169050919050565b600061118482611119565b61118e8185611124565b935061119e818560208601611135565b6111a781611168565b840191505092915050565b600060408201905081810360008301526111cc8185611179565b90506111db6020830184610eb2565b9392505050565b6111eb81610f95565b82525050565b600060208201905061120660008301846111e2565b92915050565b600080fd5b600080fd5b7f4e487b7100000000000000000000000000000000000000000000000000000000600052604160045260246000fd5b61124e82611168565b810181811067ffffffffffffffff8211171561126d5761126c611216565b5b80604052505050565b6000611280610edc565b905061128c8282611245565b919050565b600067ffffffffffffffff8211156112ac576112ab611216565b5b6112b582611168565b9050602081019050919050565b82818337600083830152505050565b60006112e46112df84611291565b611276565b905082815260208101848484011115611300576112ff611211565b5b61130b8482856112c2565b509392505050565b600082601f8301126113285761132761120c565b5b81356113388482602086016112d1565b91505092915050565b60006020828403121561135757611356610ee6565b5b600082013567ffffffffffffffff81111561137557611374610eeb565b5b61138184828501611313565b91505092915050565b611393816110c7565b811461139e57600080fd5b50565b6000813590506113b08161138a565b92915050565b6000806000606084860312156113cf576113ce610ee6565b5b60006113dd86828701610f07565b93505060206113ee868287016113a1565b92505060406113ff86828701610f07565b9150509250925092565b60006020828403121561141f5761141e610ee6565b5b600061142d84828501611072565b91505092915050565b6000819050919050565b600061145b61145661145184610f75565b611436565b610f75565b9050919050565b600061146d82611440565b9050919050565b600061147f82611462565b9050919050565b61148f81611474565b82525050565b60006020820190506114aa6000830184611486565b92915050565b7f4e487b7100000000000000000000000000000000000000000000000000000000600052602260045260246000fd5b600060028204905060018216806114f757607f821691505b60208210810361150a576115096114b0565b5b50919050565b7f4e487b7100000000000000000000000000000000000000000000000000000000600052601160045260246000fd5b600061154a82610ea8565b91507fffffffffffffffffffffffffffffffffffffffffffffffffffffffffffffffff820361157c5761157b611510565b5b600182019050919050565b600060208201905081810360008301526115a18184611179565b905092915050565b7f4e6f7420566f7465205375626a65637400000000000000000000000000000000600082015250565b60006115df601083611124565b91506115ea826115a9565b602082019050919050565b6000602082019050818103600083015261160e816115d2565b9050919050565b60008151905061162481610ef0565b92915050565b6000602082840312156116405761163f610ee6565b5b600061164e84828501611615565b91505092915050565b7f496e76616c696420616d6f756e74000000000000000000000000000000000000600082015250565b600061168d600e83611124565b915061169882611657565b602082019050919050565b600060208201905081810360008301526116bc81611680565b9050919050565b60006040820190506116d860008301856111e2565b6116e560208301846111e2565b9392505050565b7f436865636b2074686520746f6b656e20616c6c6f77616e636500000000000000600082015250565b6000611722601983611124565b915061172d826116ec565b602082019050919050565b6000602082019050818103600083015261175181611715565b9050919050565b600060608201905061176d60008301866111e2565b61177a60208301856111e2565b6117876040830184610eb2565b949350505050565b60008151905061179e8161138a565b92915050565b6000602082840312156117ba576117b9610ee6565b5b60006117c88482850161178f565b91505092915050565b60006117dc82610ea8565b91506117e783610ea8565b9250827fffffffffffffffffffffffffffffffffffffffffffffffffffffffffffffffff0382111561181c5761181b611510565b5b828201905092915050565b600060808201905061183c60008301876111e2565b6118496020830186610eb2565b61185660408301856110d3565b6118636060830184610eb2565b95945050505050565b7f4f776e61626c653a206e6577206f776e657220697320746865207a65726f206160008201527f6464726573730000000000000000000000000000000000000000000000000000602082015250565b60006118c8602683611124565b91506118d38261186c565b604082019050919050565b600060208201905081810360008301526118f7816118bb565b9050919050565b7f4f776e61626c653a2063616c6c6572206973206e6f7420746865206f776e6572600082015250565b6000611934602083611124565b915061193f826118fe565b602082019050919050565b6000602082019050818103600083015261196381611927565b9050919050565b7f4e487b7100000000000000000000000000000000000000000000000000000000600052603260045260246000fd5b60006040820190506119ae60008301856111e2565b6119bb6020830184610eb2565b939250505056fea26469706673582212207a93e9f131f42713e2d3274a74ef374ab2e212fa8eb667d8d71ee538444a5d8e64736f6c634300080d0033",
  "immutableReferences": {},
  "source": "// SPDX-License-Identifier: MIT\npragma solidity ^0.8.10;\n\nimport \"@openzeppelin/contracts/access/Ownable.sol\";\nimport \"@openzeppelin/contracts/token/ERC20/IERC20.sol\";\n\ncontract Voting is Ownable {\n    IERC20 public token;\n\n    uint256 public maxRequireVoters;\n    uint256 public totalBalances;\n    uint256 public voteId;\n    uint256 public test;\n\n    struct Voter {\n        uint256 balances;\n        uint256 timeVote;\n        bool answer; // true/false\n    }\n\n    struct VoteSubject {\n        string title;\n        uint256 totalVoters;\n        address[] voters;\n    }\n\n    mapping(uint256 => VoteSubject) public voteSubjects;\n\n    mapping(uint256 => mapping(address => Voter)) public voted;\n\n    event CreateVoteSubject(string voteTitle);\n    event Vote(address voter, uint256 voteId, bool answer, uint256 amount);\n\n    constructor(IERC20 _token) {\n        token = _token;\n        maxRequireVoters = 2; //maximum 2 voters\n    }\n\n    modifier canVote(uint256 _voteId, uint256 _amount) {\n        require(_voteId >= 0 && _voteId <= voteId, \"Not Vote Subject\");\n\n        // require(voted[_voteId][msg.sender].balances >0, \"You have voted\");\n\n        require(\n            _amount <= token.balanceOf(msg.sender) && _amount > 0,\n            \"Invalid amount\"\n        );\n        uint256 allowance = token.allowance(msg.sender, address(this));\n        require(allowance >= _amount, \"Check the token allowance\");\n        _;\n    }\n\n    function createVoteSubject(string memory voteTitle) public onlyOwner {\n        VoteSubject storage curVoteSubject = voteSubjects[voteId];\n        curVoteSubject.title = voteTitle;\n        voteId++;\n        emit CreateVoteSubject(voteTitle);\n    }\n\n    modifier canFund(uint256 _voteId) {\n        VoteSubject storage curVoteSubject = voteSubjects[_voteId];\n        address[] storage voters = voteSubjects[_voteId].voters;\n        // totalVoters +=1;\n        voters.push(address(this));\n\n        if (curVoteSubject.totalVoters >= 2) {\n            autoRefun(_voteId);\n        }\n        _;\n    }\n\n    function vote(\n        uint256 _voteId,\n        bool _answer,\n        uint256 _amount\n    ) external canVote(_voteId, _amount) canFund(_voteId) {\n        token.transferFrom(msg.sender, address(this), _amount);\n        totalBalances += _amount;\n\n        //add voted data\n        voted[_voteId][msg.sender].balances += _amount;\n        voted[_voteId][msg.sender].timeVote = block.timestamp;\n        voted[_voteId][msg.sender].answer = _answer;\n\n        //update number voters\n        VoteSubject storage curVoteSubject = voteSubjects[_voteId];\n        curVoteSubject.voters.push(msg.sender);\n        curVoteSubject.totalVoters += 1;\n\n        emit Vote(msg.sender, _voteId, _answer, _amount);\n    }\n\n    function autoRefun(uint256 _voteId) internal {\n        uint256 length = voteSubjects[_voteId].voters.length;\n\n        for (uint256 i = 0; i < length; i++) {\n            address voter = voteSubjects[_voteId].voters[i];\n            token.transfer(voter, voted[_voteId][voter].balances);\n        }\n    }\n\n    function getTotalUserVote(uint256 _voteId)\n        public\n        view\n        returns (address[] memory)\n    {\n        return voteSubjects[_voteId].voters;\n    }\n}\n",
  "sourcePath": "/Users/lucas/Desktop/A8/Smartcontract/Voting/contracts/Voting.sol",
  "compiler": {
    "name": "solc",
    "version": "0.8.13+commit.abaa5c0e.Emscripten.clang"
  },
  "schemaVersion": "3.4.11",
  "updatedAt": "2023-03-02T03:24:40.452Z",
  "devdoc": {
    "kind": "dev",
    "methods": {
      "owner()": {
        "details": "Returns the address of the current owner."
      },
      "renounceOwnership()": {
        "details": "Leaves the contract without owner. It will not be possible to call `onlyOwner` functions anymore. Can only be called by the current owner. NOTE: Renouncing ownership will leave the contract without an owner, thereby removing any functionality that is only available to the owner."
      },
      "transferOwnership(address)": {
        "details": "Transfers ownership of the contract to a new account (`newOwner`). Can only be called by the current owner."
      }
    },
    "version": 1
  },
  "userdoc": {
    "kind": "user",
    "methods": {},
    "version": 1
  }
}